{
  "_format": "hh-sol-artifact-1",
  "contractName": "User",
  "sourceName": "contracts/User.sol",
  "abi": [
    {
      "inputs": [
        {
          "internalType": "address",
          "name": "_userAddress",
          "type": "address"
        }
      ],
      "name": "getUser",
      "outputs": [
        {
          "components": [
            {
              "internalType": "bool",
              "name": "isRegistered",
              "type": "bool"
            },
            {
              "internalType": "string",
              "name": "username",
              "type": "string"
            },
            {
              "internalType": "string",
              "name": "bio",
              "type": "string"
            }
          ],
          "internalType": "struct User.UserData",
          "name": "",
          "type": "tuple"
        }
      ],
      "stateMutability": "view",
      "type": "function"
    },
    {
      "inputs": [
        {
          "internalType": "string",
          "name": "_username",
          "type": "string"
        },
        {
          "internalType": "string",
          "name": "_bio",
          "type": "string"
        }
      ],
      "name": "register",
      "outputs": [],
      "stateMutability": "nonpayable",
      "type": "function"
    },
    {
      "inputs": [
        {
          "internalType": "address",
          "name": "",
          "type": "address"
        }
      ],
      "name": "users",
      "outputs": [
        {
          "internalType": "bool",
          "name": "isRegistered",
          "type": "bool"
        },
        {
          "internalType": "string",
          "name": "username",
          "type": "string"
        },
        {
          "internalType": "string",
          "name": "bio",
          "type": "string"
        }
      ],
      "stateMutability": "view",
      "type": "function"
    }
  ],
  "bytecode": "0x608060405234801561001057600080fd5b50610d95806100206000396000f3fe608060405234801561001057600080fd5b50600436106100415760003560e01c80633ffbd47f146100465780636f77926b14610062578063a87430ba14610092575b600080fd5b610060600480360381019061005b91906106eb565b6100c4565b005b61007c600480360381019061007791906107c1565b610202565b60405161008991906108df565b60405180910390f35b6100ac60048036038101906100a791906107c1565b610427565b6040516100bb9392919061095a565b60405180910390f35b6000803373ffffffffffffffffffffffffffffffffffffffff1673ffffffffffffffffffffffffffffffffffffffff16815260200190815260200160002060000160009054906101000a900460ff1615610153576040517f08c379a000000000000000000000000000000000000000000000000000000000815260040161014a906109eb565b60405180910390fd5b6040518060600160405280600115158152602001838152602001828152506000803373ffffffffffffffffffffffffffffffffffffffff1673ffffffffffffffffffffffffffffffffffffffff16815260200190815260200160002060008201518160000160006101000a81548160ff02191690831515021790555060208201518160010190816101e49190610c21565b5060408201518160020190816101fa9190610c21565b509050505050565b61020a61056e565b6000808373ffffffffffffffffffffffffffffffffffffffff1673ffffffffffffffffffffffffffffffffffffffff16815260200190815260200160002060000160009054906101000a900460ff16610298576040517f08c379a000000000000000000000000000000000000000000000000000000000815260040161028f90610d3f565b60405180910390fd5b6000808373ffffffffffffffffffffffffffffffffffffffff1673ffffffffffffffffffffffffffffffffffffffff1681526020019081526020016000206040518060600160405290816000820160009054906101000a900460ff1615151515815260200160018201805461030c90610a3a565b80601f016020809104026020016040519081016040528092919081815260200182805461033890610a3a565b80156103855780601f1061035a57610100808354040283529160200191610385565b820191906000526020600020905b81548152906001019060200180831161036857829003601f168201915b5050505050815260200160028201805461039e90610a3a565b80601f01602080910402602001604051908101604052809291908181526020018280546103ca90610a3a565b80156104175780601f106103ec57610100808354040283529160200191610417565b820191906000526020600020905b8154815290600101906020018083116103fa57829003601f168201915b5050505050815250509050919050565b60006020528060005260406000206000915090508060000160009054906101000a900460ff169080600101805461045d90610a3a565b80601f016020809104026020016040519081016040528092919081815260200182805461048990610a3a565b80156104d65780601f106104ab576101008083540402835291602001916104d6565b820191906000526020600020905b8154815290600101906020018083116104b957829003601f168201915b5050505050908060020180546104eb90610a3a565b80601f016020809104026020016040519081016040528092919081815260200182805461051790610a3a565b80156105645780601f1061053957610100808354040283529160200191610564565b820191906000526020600020905b81548152906001019060200180831161054757829003601f168201915b5050505050905083565b604051806060016040528060001515815260200160608152602001606081525090565b6000604051905090565b600080fd5b600080fd5b600080fd5b600080fd5b6000601f19601f8301169050919050565b7f4e487b7100000000000000000000000000000000000000000000000000000000600052604160045260246000fd5b6105f8826105af565b810181811067ffffffffffffffff82111715610617576106166105c0565b5b80604052505050565b600061062a610591565b905061063682826105ef565b919050565b600067ffffffffffffffff821115610656576106556105c0565b5b61065f826105af565b9050602081019050919050565b82818337600083830152505050565b600061068e6106898461063b565b610620565b9050828152602081018484840111156106aa576106a96105aa565b5b6106b584828561066c565b509392505050565b600082601f8301126106d2576106d16105a5565b5b81356106e284826020860161067b565b91505092915050565b600080604083850312156107025761070161059b565b5b600083013567ffffffffffffffff8111156107205761071f6105a0565b5b61072c858286016106bd565b925050602083013567ffffffffffffffff81111561074d5761074c6105a0565b5b610759858286016106bd565b9150509250929050565b600073ffffffffffffffffffffffffffffffffffffffff82169050919050565b600061078e82610763565b9050919050565b61079e81610783565b81146107a957600080fd5b50565b6000813590506107bb81610795565b92915050565b6000602082840312156107d7576107d661059b565b5b60006107e5848285016107ac565b91505092915050565b60008115159050919050565b610803816107ee565b82525050565b600081519050919050565b600082825260208201905092915050565b60005b83811015610843578082015181840152602081019050610828565b60008484015250505050565b600061085a82610809565b6108648185610814565b9350610874818560208601610825565b61087d816105af565b840191505092915050565b60006060830160008301516108a060008601826107fa565b50602083015184820360208601526108b8828261084f565b915050604083015184820360408601526108d2828261084f565b9150508091505092915050565b600060208201905081810360008301526108f98184610888565b905092915050565b61090a816107ee565b82525050565b600082825260208201905092915050565b600061092c82610809565b6109368185610910565b9350610946818560208601610825565b61094f816105af565b840191505092915050565b600060608201905061096f6000830186610901565b81810360208301526109818185610921565b905081810360408301526109958184610921565b9050949350505050565b7f5573657220616c72656164792072656769737465726564000000000000000000600082015250565b60006109d5601783610910565b91506109e08261099f565b602082019050919050565b60006020820190508181036000830152610a04816109c8565b9050919050565b7f4e487b7100000000000000000000000000000000000000000000000000000000600052602260045260246000fd5b60006002820490506001821680610a5257607f821691505b602082108103610a6557610a64610a0b565b5b50919050565b60008190508160005260206000209050919050565b60006020601f8301049050919050565b600082821b905092915050565b600060088302610acd7fffffffffffffffffffffffffffffffffffffffffffffffffffffffffffffffff82610a90565b610ad78683610a90565b95508019841693508086168417925050509392505050565b6000819050919050565b6000819050919050565b6000610b1e610b19610b1484610aef565b610af9565b610aef565b9050919050565b6000819050919050565b610b3883610b03565b610b4c610b4482610b25565b848454610a9d565b825550505050565b600090565b610b61610b54565b610b6c818484610b2f565b505050565b5b81811015610b9057610b85600082610b59565b600181019050610b72565b5050565b601f821115610bd557610ba681610a6b565b610baf84610a80565b81016020851015610bbe578190505b610bd2610bca85610a80565b830182610b71565b50505b505050565b600082821c905092915050565b6000610bf860001984600802610bda565b1980831691505092915050565b6000610c118383610be7565b9150826002028217905092915050565b610c2a82610809565b67ffffffffffffffff811115610c4357610c426105c0565b5b610c4d8254610a3a565b610c58828285610b94565b600060209050601f831160018114610c8b5760008415610c79578287015190505b610c838582610c05565b865550610ceb565b601f198416610c9986610a6b565b60005b82811015610cc157848901518255600182019150602085019450602081019050610c9c565b86831015610cde5784890151610cda601f891682610be7565b8355505b6001600288020188555050505b505050505050565b7f55736572206e6f74207265676973746572656400000000000000000000000000600082015250565b6000610d29601383610910565b9150610d3482610cf3565b602082019050919050565b60006020820190508181036000830152610d5881610d1c565b905091905056fea26469706673582212201136919ee60dc83ae5749212a9bd599c5b08babca2101ff9b3217548f9c9b50164736f6c63430008180033",
  "linkReferences": {},
  "deployedLinkReferences": {}
}