{
  "_format": "hh-sol-artifact-1",
  "contractName": "Post",
  "sourceName": "contracts/Post.sol",
  "abi": [
    {
      "inputs": [
        {
          "internalType": "address",
          "name": "_userContractAddress",
          "type": "address"
        }
      ],
      "stateMutability": "nonpayable",
      "type": "constructor"
    },
    {
      "inputs": [
        {
          "internalType": "string",
          "name": "_content",
          "type": "string"
        }
      ],
      "name": "createPost",
      "outputs": [],
      "stateMutability": "nonpayable",
      "type": "function"
    },
    {
      "inputs": [],
      "name": "getPosts",
      "outputs": [
        {
          "components": [
            {
              "internalType": "address",
              "name": "author",
              "type": "address"
            },
            {
              "internalType": "string",
              "name": "authorUsername",
              "type": "string"
            },
            {
              "internalType": "string",
              "name": "content",
              "type": "string"
            },
            {
              "internalType": "uint256",
              "name": "timestamp",
              "type": "uint256"
            }
          ],
          "internalType": "struct Post.PostData[]",
          "name": "",
          "type": "tuple[]"
        }
      ],
      "stateMutability": "view",
      "type": "function"
    },
    {
      "inputs": [
        {
          "internalType": "uint256",
          "name": "",
          "type": "uint256"
        }
      ],
      "name": "posts",
      "outputs": [
        {
          "internalType": "address",
          "name": "author",
          "type": "address"
        },
        {
          "internalType": "string",
          "name": "authorUsername",
          "type": "string"
        },
        {
          "internalType": "string",
          "name": "content",
          "type": "string"
        },
        {
          "internalType": "uint256",
          "name": "timestamp",
          "type": "uint256"
        }
      ],
      "stateMutability": "view",
      "type": "function"
    },
    {
      "inputs": [],
      "name": "userContract",
      "outputs": [
        {
          "internalType": "contract IUser",
          "name": "",
          "type": "address"
        }
      ],
      "stateMutability": "view",
      "type": "function"
    }
  ],
  "bytecode": "0x60806040523480156200001157600080fd5b50604051620010bc380380620010bc8339818101604052810190620000379190620000e9565b80600160006101000a81548173ffffffffffffffffffffffffffffffffffffffff021916908373ffffffffffffffffffffffffffffffffffffffff160217905550506200011b565b600080fd5b600073ffffffffffffffffffffffffffffffffffffffff82169050919050565b6000620000b18262000084565b9050919050565b620000c381620000a4565b8114620000cf57600080fd5b50565b600081519050620000e381620000b8565b92915050565b6000602082840312156200010257620001016200007f565b5b60006200011284828501620000d2565b91505092915050565b610f91806200012b6000396000f3fe608060405234801561001057600080fd5b506004361061004c5760003560e01c80630b1e7f831461005157806341f3004a146100845780635000596b146100a2578063c7303c61146100c0575b600080fd5b61006b6004803603810190610066919061062b565b6100dc565b60405161007b9493929190610738565b60405180910390f35b61008c61024c565b604051610099919061091f565b60405180910390f35b6100aa61042f565b6040516100b791906109a0565b60405180910390f35b6100da60048036038101906100d59190610af0565b610455565b005b600081815481106100ec57600080fd5b90600052602060002090600402016000915090508060000160009054906101000a900473ffffffffffffffffffffffffffffffffffffffff169080600101805461013590610b68565b80601f016020809104026020016040519081016040528092919081815260200182805461016190610b68565b80156101ae5780601f10610183576101008083540402835291602001916101ae565b820191906000526020600020905b81548152906001019060200180831161019157829003601f168201915b5050505050908060020180546101c390610b68565b80601f01602080910402602001604051908101604052809291908181526020018280546101ef90610b68565b801561023c5780601f106102115761010080835404028352916020019161023c565b820191906000526020600020905b81548152906001019060200180831161021f57829003601f168201915b5050505050908060030154905084565b60606000805480602002602001604051908101604052809291908181526020016000905b8282101561042657838290600052602060002090600402016040518060800160405290816000820160009054906101000a900473ffffffffffffffffffffffffffffffffffffffff1673ffffffffffffffffffffffffffffffffffffffff1673ffffffffffffffffffffffffffffffffffffffff1681526020016001820180546102f990610b68565b80601f016020809104026020016040519081016040528092919081815260200182805461032590610b68565b80156103725780601f1061034757610100808354040283529160200191610372565b820191906000526020600020905b81548152906001019060200180831161035557829003601f168201915b5050505050815260200160028201805461038b90610b68565b80601f01602080910402602001604051908101604052809291908181526020018280546103b790610b68565b80156104045780601f106103d957610100808354040283529160200191610404565b820191906000526020600020905b8154815290600101906020018083116103e757829003601f168201915b5050505050815260200160038201548152505081526020019060010190610270565b50505050905090565b600160009054906101000a900473ffffffffffffffffffffffffffffffffffffffff1681565b6000600160009054906101000a900473ffffffffffffffffffffffffffffffffffffffff1673ffffffffffffffffffffffffffffffffffffffff16636f77926b336040518263ffffffff1660e01b81526004016104b29190610b99565b600060405180830381865afa1580156104cf573d6000803e3d6000fd5b505050506040513d6000823e3d601f19601f820116820180604052508101906104f89190610c5c565b50915050600060405180608001604052803373ffffffffffffffffffffffffffffffffffffffff16815260200183815260200184815260200142815250908060018154018082558091505060019003906000526020600020906004020160009091909190915060008201518160000160006101000a81548173ffffffffffffffffffffffffffffffffffffffff021916908373ffffffffffffffffffffffffffffffffffffffff16021790555060208201518160010190816105ba9190610e89565b5060408201518160020190816105d09190610e89565b506060820151816003015550505050565b6000604051905090565b600080fd5b600080fd5b6000819050919050565b610608816105f5565b811461061357600080fd5b50565b600081359050610625816105ff565b92915050565b600060208284031215610641576106406105eb565b5b600061064f84828501610616565b91505092915050565b600073ffffffffffffffffffffffffffffffffffffffff82169050919050565b600061068382610658565b9050919050565b61069381610678565b82525050565b600081519050919050565b600082825260208201905092915050565b60005b838110156106d35780820151818401526020810190506106b8565b60008484015250505050565b6000601f19601f8301169050919050565b60006106fb82610699565b61070581856106a4565b93506107158185602086016106b5565b61071e816106df565b840191505092915050565b610732816105f5565b82525050565b600060808201905061074d600083018761068a565b818103602083015261075f81866106f0565b9050818103604083015261077381856106f0565b90506107826060830184610729565b95945050505050565b600081519050919050565b600082825260208201905092915050565b6000819050602082019050919050565b6107c081610678565b82525050565b600082825260208201905092915050565b60006107e282610699565b6107ec81856107c6565b93506107fc8185602086016106b5565b610805816106df565b840191505092915050565b610819816105f5565b82525050565b600060808301600083015161083760008601826107b7565b506020830151848203602086015261084f82826107d7565b9150506040830151848203604086015261086982826107d7565b915050606083015161087e6060860182610810565b508091505092915050565b6000610895838361081f565b905092915050565b6000602082019050919050565b60006108b58261078b565b6108bf8185610796565b9350836020820285016108d1856107a7565b8060005b8581101561090d57848403895281516108ee8582610889565b94506108f98361089d565b925060208a019950506001810190506108d5565b50829750879550505050505092915050565b6000602082019050818103600083015261093981846108aa565b905092915050565b6000819050919050565b600061096661096161095c84610658565b610941565b610658565b9050919050565b60006109788261094b565b9050919050565b600061098a8261096d565b9050919050565b61099a8161097f565b82525050565b60006020820190506109b56000830184610991565b92915050565b600080fd5b600080fd5b7f4e487b7100000000000000000000000000000000000000000000000000000000600052604160045260246000fd5b6109fd826106df565b810181811067ffffffffffffffff82111715610a1c57610a1b6109c5565b5b80604052505050565b6000610a2f6105e1565b9050610a3b82826109f4565b919050565b600067ffffffffffffffff821115610a5b57610a5a6109c5565b5b610a64826106df565b9050602081019050919050565b82818337600083830152505050565b6000610a93610a8e84610a40565b610a25565b905082815260208101848484011115610aaf57610aae6109c0565b5b610aba848285610a71565b509392505050565b600082601f830112610ad757610ad66109bb565b5b8135610ae7848260208601610a80565b91505092915050565b600060208284031215610b0657610b056105eb565b5b600082013567ffffffffffffffff811115610b2457610b236105f0565b5b610b3084828501610ac2565b91505092915050565b7f4e487b7100000000000000000000000000000000000000000000000000000000600052602260045260246000fd5b60006002820490506001821680610b8057607f821691505b602082108103610b9357610b92610b39565b5b50919050565b6000602082019050610bae600083018461068a565b92915050565b60008115159050919050565b610bc981610bb4565b8114610bd457600080fd5b50565b600081519050610be681610bc0565b92915050565b6000610bff610bfa84610a40565b610a25565b905082815260208101848484011115610c1b57610c1a6109c0565b5b610c268482856106b5565b509392505050565b600082601f830112610c4357610c426109bb565b5b8151610c53848260208601610bec565b91505092915050565b600080600060608486031215610c7557610c746105eb565b5b6000610c8386828701610bd7565b935050602084015167ffffffffffffffff811115610ca457610ca36105f0565b5b610cb086828701610c2e565b925050604084015167ffffffffffffffff811115610cd157610cd06105f0565b5b610cdd86828701610c2e565b9150509250925092565b60008190508160005260206000209050919050565b60006020601f8301049050919050565b600082821b905092915050565b600060088302610d497fffffffffffffffffffffffffffffffffffffffffffffffffffffffffffffffff82610d0c565b610d538683610d0c565b95508019841693508086168417925050509392505050565b6000610d86610d81610d7c846105f5565b610941565b6105f5565b9050919050565b6000819050919050565b610da083610d6b565b610db4610dac82610d8d565b848454610d19565b825550505050565b600090565b610dc9610dbc565b610dd4818484610d97565b505050565b5b81811015610df857610ded600082610dc1565b600181019050610dda565b5050565b601f821115610e3d57610e0e81610ce7565b610e1784610cfc565b81016020851015610e26578190505b610e3a610e3285610cfc565b830182610dd9565b50505b505050565b600082821c905092915050565b6000610e6060001984600802610e42565b1980831691505092915050565b6000610e798383610e4f565b9150826002028217905092915050565b610e9282610699565b67ffffffffffffffff811115610eab57610eaa6109c5565b5b610eb58254610b68565b610ec0828285610dfc565b600060209050601f831160018114610ef35760008415610ee1578287015190505b610eeb8582610e6d565b865550610f53565b601f198416610f0186610ce7565b60005b82811015610f2957848901518255600182019150602085019450602081019050610f04565b86831015610f465784890151610f42601f891682610e4f565b8355505b6001600288020188555050505b50505050505056fea264697066735822122064b4f2d0e203ade57d3377b0d3c1643f40942338f106ba9741d2551898e2660664736f6c63430008180033",
  "linkReferences": {},
  "deployedLinkReferences": {}
}