{
  "_format": "hh-sol-artifact-1",
  "contractName": "User",
  "sourceName": "contracts/User.sol",
  "abi": [
    {
      "inputs": [
        {
          "internalType": "address",
          "name": "_userAddress",
          "type": "address"
        }
      ],
      "name": "getUser",
      "outputs": [
        {
          "internalType": "bool",
          "name": "",
          "type": "bool"
        },
        {
          "internalType": "string",
          "name": "",
          "type": "string"
        },
        {
          "internalType": "string",
          "name": "",
          "type": "string"
        }
      ],
      "stateMutability": "view",
      "type": "function"
    },
    {
      "inputs": [
        {
          "internalType": "string",
          "name": "_username",
          "type": "string"
        },
        {
          "internalType": "string",
          "name": "_bio",
          "type": "string"
        }
      ],
      "name": "register",
      "outputs": [],
      "stateMutability": "nonpayable",
      "type": "function"
    },
    {
      "inputs": [
        {
          "internalType": "address",
          "name": "",
          "type": "address"
        }
      ],
      "name": "users",
      "outputs": [
        {
          "internalType": "bool",
          "name": "isRegistered",
          "type": "bool"
        },
        {
          "internalType": "string",
          "name": "username",
          "type": "string"
        },
        {
          "internalType": "string",
          "name": "bio",
          "type": "string"
        }
      ],
      "stateMutability": "view",
      "type": "function"
    }
  ],
  "bytecode": "0x608060405234801561001057600080fd5b50610cb9806100206000396000f3fe608060405234801561001057600080fd5b50600436106100415760003560e01c80633ffbd47f146100465780636f77926b14610062578063a87430ba14610094575b600080fd5b610060600480360381019061005b91906106e1565b6100c6565b005b61007c600480360381019061007791906107b7565b610204565b60405161008b9392919061087e565b60405180910390f35b6100ae60048036038101906100a991906107b7565b610440565b6040516100bd9392919061087e565b60405180910390f35b6000803373ffffffffffffffffffffffffffffffffffffffff1673ffffffffffffffffffffffffffffffffffffffff16815260200190815260200160002060000160009054906101000a900460ff1615610155576040517f08c379a000000000000000000000000000000000000000000000000000000000815260040161014c9061090f565b60405180910390fd5b6040518060600160405280600115158152602001838152602001828152506000803373ffffffffffffffffffffffffffffffffffffffff1673ffffffffffffffffffffffffffffffffffffffff16815260200190815260200160002060008201518160000160006101000a81548160ff02191690831515021790555060208201518160010190816101e69190610b45565b5060408201518160020190816101fc9190610b45565b509050505050565b60006060806000808573ffffffffffffffffffffffffffffffffffffffff1673ffffffffffffffffffffffffffffffffffffffff16815260200190815260200160002060000160009054906101000a900460ff16610297576040517f08c379a000000000000000000000000000000000000000000000000000000000815260040161028e90610c63565b60405180910390fd5b60008060008673ffffffffffffffffffffffffffffffffffffffff1673ffffffffffffffffffffffffffffffffffffffff1681526020019081526020016000206040518060600160405290816000820160009054906101000a900460ff1615151515815260200160018201805461030d9061095e565b80601f01602080910402602001604051908101604052809291908181526020018280546103399061095e565b80156103865780601f1061035b57610100808354040283529160200191610386565b820191906000526020600020905b81548152906001019060200180831161036957829003601f168201915b5050505050815260200160028201805461039f9061095e565b80601f01602080910402602001604051908101604052809291908181526020018280546103cb9061095e565b80156104185780601f106103ed57610100808354040283529160200191610418565b820191906000526020600020905b8154815290600101906020018083116103fb57829003601f168201915b5050505050815250509050806000015181602001518260400151935093509350509193909250565b60006020528060005260406000206000915090508060000160009054906101000a900460ff16908060010180546104769061095e565b80601f01602080910402602001604051908101604052809291908181526020018280546104a29061095e565b80156104ef5780601f106104c4576101008083540402835291602001916104ef565b820191906000526020600020905b8154815290600101906020018083116104d257829003601f168201915b5050505050908060020180546105049061095e565b80601f01602080910402602001604051908101604052809291908181526020018280546105309061095e565b801561057d5780601f106105525761010080835404028352916020019161057d565b820191906000526020600020905b81548152906001019060200180831161056057829003601f168201915b5050505050905083565b6000604051905090565b600080fd5b600080fd5b600080fd5b600080fd5b6000601f19601f8301169050919050565b7f4e487b7100000000000000000000000000000000000000000000000000000000600052604160045260246000fd5b6105ee826105a5565b810181811067ffffffffffffffff8211171561060d5761060c6105b6565b5b80604052505050565b6000610620610587565b905061062c82826105e5565b919050565b600067ffffffffffffffff82111561064c5761064b6105b6565b5b610655826105a5565b9050602081019050919050565b82818337600083830152505050565b600061068461067f84610631565b610616565b9050828152602081018484840111156106a05761069f6105a0565b5b6106ab848285610662565b509392505050565b600082601f8301126106c8576106c761059b565b5b81356106d8848260208601610671565b91505092915050565b600080604083850312156106f8576106f7610591565b5b600083013567ffffffffffffffff81111561071657610715610596565b5b610722858286016106b3565b925050602083013567ffffffffffffffff81111561074357610742610596565b5b61074f858286016106b3565b9150509250929050565b600073ffffffffffffffffffffffffffffffffffffffff82169050919050565b600061078482610759565b9050919050565b61079481610779565b811461079f57600080fd5b50565b6000813590506107b18161078b565b92915050565b6000602082840312156107cd576107cc610591565b5b60006107db848285016107a2565b91505092915050565b60008115159050919050565b6107f9816107e4565b82525050565b600081519050919050565b600082825260208201905092915050565b60005b8381101561083957808201518184015260208101905061081e565b60008484015250505050565b6000610850826107ff565b61085a818561080a565b935061086a81856020860161081b565b610873816105a5565b840191505092915050565b600060608201905061089360008301866107f0565b81810360208301526108a58185610845565b905081810360408301526108b98184610845565b9050949350505050565b7f5573657220616c72656164792072656769737465726564000000000000000000600082015250565b60006108f960178361080a565b9150610904826108c3565b602082019050919050565b60006020820190508181036000830152610928816108ec565b9050919050565b7f4e487b7100000000000000000000000000000000000000000000000000000000600052602260045260246000fd5b6000600282049050600182168061097657607f821691505b6020821081036109895761098861092f565b5b50919050565b60008190508160005260206000209050919050565b60006020601f8301049050919050565b600082821b905092915050565b6000600883026109f17fffffffffffffffffffffffffffffffffffffffffffffffffffffffffffffffff826109b4565b6109fb86836109b4565b95508019841693508086168417925050509392505050565b6000819050919050565b6000819050919050565b6000610a42610a3d610a3884610a13565b610a1d565b610a13565b9050919050565b6000819050919050565b610a5c83610a27565b610a70610a6882610a49565b8484546109c1565b825550505050565b600090565b610a85610a78565b610a90818484610a53565b505050565b5b81811015610ab457610aa9600082610a7d565b600181019050610a96565b5050565b601f821115610af957610aca8161098f565b610ad3846109a4565b81016020851015610ae2578190505b610af6610aee856109a4565b830182610a95565b50505b505050565b600082821c905092915050565b6000610b1c60001984600802610afe565b1980831691505092915050565b6000610b358383610b0b565b9150826002028217905092915050565b610b4e826107ff565b67ffffffffffffffff811115610b6757610b666105b6565b5b610b71825461095e565b610b7c828285610ab8565b600060209050601f831160018114610baf5760008415610b9d578287015190505b610ba78582610b29565b865550610c0f565b601f198416610bbd8661098f565b60005b82811015610be557848901518255600182019150602085019450602081019050610bc0565b86831015610c025784890151610bfe601f891682610b0b565b8355505b6001600288020188555050505b505050505050565b7f55736572206e6f74207265676973746572656400000000000000000000000000600082015250565b6000610c4d60138361080a565b9150610c5882610c17565b602082019050919050565b60006020820190508181036000830152610c7c81610c40565b905091905056fea2646970667358221220cc07d26020b2c56690652e3bfbbde2a7d2b9aa44927d3e24ab781daf4d91585764736f6c63430008180033",
  "linkReferences": {},
  "deployedLinkReferences": {}
}